:100000000C94F7180C9437190C9437190C94371971
:100010000C9437190C9437190C9437190C94371920
:100020000C9437190C9437190C9437190C94371910
:100030000C9437190C94EFD20C9437190C9437198F
:100040000C9437190C949E820C9437190C94371920
:100050000C9437190C9437190C946A810C94A5D21E
:100060000C9437190C9400540C94F6530C943719D3
:100070000C9437190C9437190C9437190C943719C0
:100080000C9437190C9437190C9437190C943719B0
:100090000C9437190C9437190C9437190C943719A0
:1000A0000C9437190C9437190C9437190C94371990
:1000B0000C9437190C9437190C9437190C94371980
:1000C0000C9437190C9437190C9437190C94371970
:1000D0000C9437190C9437190C9437190C94371960
:1000E0000C943719084AD73B3BCE016E84BCBFFD48
:1000F000C12F3D6C74319ABD56833DDA3D00C77FF8
:1001000011BED9E4BB4C3E916BAAAABE0000008090
:100110003F05A84CCDB2D44EB93836A9020C50B91F
:10012000918688083CA6AAAA2ABE000000803F004B
:100130004E414E494E495459494E46CDCCCC3D0ACC
:10014000D7233C17B7D13877CC2B329595E6241FAF
:10015000B14F0A000020410000C84200401C462068
:10016000BCBE4CCA1B0E5AAEC59D7400407A10F33B
:100170005A00A0724E18090010A5D4E80000E876D5
:1001800048170000E40B54020000CA9A3B0000002C
:10019000E1F505000080969800000040420F000045
:1001A00000A08601000000102700000000E8030006
:1001B0000000006400000000000A000000000001D0
:1001C00000000000002C76D888DC674F0823DFC1D0
:1001D000DFAE59E1B1B796E5E3E453C63AE651998B
:1001E0007696E8E6C28426EB898C9B62ED407C6FB4
:1001F000FCEFBC9C9F40F2BAA56FA5F490055A2A6B
:10020000F75C936B6CF9676DC11BFCE0E40D47FE76
:10021000F520E6B500D0ED902E030094357705006B
:1002200080841E080000204E0A000000C80C3333F2
:1002300033330F986E12831141EF8D2114893BE601
:100240005516CFFEE6DB18D1844B381BF77C1D908A
:100250001DA4BBE424203284725E228100C9F124F3
:10026000ECA1E53D27434F4D4D554E49434154497F
:100270004F4E0044525952554E004552524F525320
:1002800000494E464F004543484F00554E4C4F41A4
:10029000442046494C414D454E54004C4F4144206A
:1002A00046494C414D454E540046494C414D454E02
:1002B00054204348414E47450053544F5050454405
:1002C0002E20005072696E7465722073746F7070A6
:1002D00065642064756520746F206572726F727337
:1002E0002E2046697820746865206572726F7220CE
:1002F000616E6420757365204D39393920746F2023
:10030000726573746172742E202854656D70657205
:1003100061747572652069732072657365742E202F
:100320005365742069742061667465722072657308
:1003300074617274696E67290A004E6F20436865A4
:10034000636B73756D2077697468206C696E6520C6
:100350006E756D6265722C204C617374204C696EF1
:10036000653A20004E6F20436865636B73756D209E
:1003700077697468206C696E65206E756D62657250
:100380002C204C617374204C696E653A20006368C0
:1003900065636B73756D206D69736D617463682C33
:1003A000204C617374204C696E653A20004C696E74
:1003B00065204E756D626572206973206E6F7420C2
:1003C0004C617374204C696E65204E756D62657268
:1003D0002B312C204C617374204C696E653A2000DF
:1003E0004D3131300053657269616C2073746174F2
:1003F0007573206D69736D617463680A00534420DE
:1004000072656164206572726F720A002121204B4F
:10041000494C4C2063617573656420627920746F68
:100420006F206D75636820696E61637469766520FD
:1004300074696D65202D2063757272656E7420631A
:100440006F6D6D616E643A2000627573793A207049
:10045000617573656420666F7220696E7075740AC9
:1004600000627573793A2070617573656420666FF8
:100470007220757365720A00627573793A20707222
:100480006F63657373696E670A0053442052656D2C
:100490006F76656400534420496E736572746564B9
:1004A000007061757365004D363030002066696CF0
:1004B000616D656E745F72756E6F7574200066692C
:1004C0006C616D656E745F72756E6F75742054002B
:1004D000506C6561736520526573657400505249B4
:1004E0004E5445522048414C5445440025533A202F
:1004F000255300706F7765726F6666004B494C4CF0
:1005000045442E20005072696E7465722068616CDB
:100510007465642E206B696C6C28292063616C6C97
:100520006564210A006563686F3A004572726F72F4
:100530003A002F2F616374696F6E3A00486F7465DB
:100540006E6420746F6F20636F6C640A0050726574
:10055000737320627574746F6E20746F207265738C
:10056000756D650A00496E736572742066696C6109
:100570006D656E7420616E642070726573732062A5
:100580007574746F6E0A00507265737320627574AF
:10059000746F6E20746F2068656174206E6F7A7A54
:1005A0006C650A0070617573656400726573756DC2
:1005B000656400496E736572742066696C616D656F
:1005C0006E7420616E64207072657373206275743E
:1005D000746F6E0A0020204D3230312058004D617A
:1005E0007820416363656C65726174696F6E202861
:1005F000756E6974732F7332290020204D323033A9
:100600002058004D61782066656564726174657379
:100610002028756E6974732F7329002052002020E2
:100620004D323034205000416363656C65726174F3
:10063000696F6E2028756E6974732F7332292028B4
:10064000503C7072696E742D616363656C3E20521C
:100650003C726574726163742D616363656C3E20E6
:10066000543C74726176656C2D616363656C3E29E0
:100670000020540020530020204D3230352042000D
:10068000416476616E6365642028423C6D696E5FEB
:100690007365676D656E745F74696D655F75733ED4
:1006A00020533C6D696E5F66656564726174653E7A
:1006B00020543C6D696E5F74726176656C5F66652F
:1006C0006564726174653E20583C6D61785F785F47
:1006D0006A65726B3E20593C6D61785F795F6A652F
:1006E000726B3E205A3C6D61785F7A5F6A65726B0F
:1006F0003E20453C6D61785F655F6A65726B3E299F
:100700000020440020490020204D3330312050008B
:10071000486F74656E642050494400203B002055AA
:100720000020204D363033204C0046696C616D65E9
:100730006E74206C6F61642F756E6C6F6164002045
:10074000496E76616C69642065787472756465724F
:10075000200047322F47332062616420706172614C
:100760006D65746572730A00536C6565702E2E2E6C
:1007700000436C69636B20746F20526573756D65FF
:100780002E2E2E004E6F204D6F76652E00456E6426
:100790002066696C65206C6973740A00426567693C
:1007A0006E2066696C65206C6973740A004E6F2058
:1007B0006D656469610A00286E6F2066696C652941
:1007C0000043757272656E742066696C653A20002C
:1007D0005344207072696E74696E67206279746523
:1007E00020004E6F74205344207072696E74696EDD
:1007F000670A002E0A0044656C6574696F6E206696
:1008000061696C65642C2046696C653A2000466914
:100810006C652064656C657465643A0025697300D5
:1008200025696D20256973002569682025696D207B
:1008300025697300256964202569682025696D2074
:100840002569730025697920256964202569682058
:1008500025696D20256973005072696E7420746972
:100860006D653A20006F6B006F666600860281023C
:100870007A027302650244454255473A004D3131D0
:10088000322053687574646F776E004D31313320B8
:1008900053004241544348544833442052454D4943
:1008A0005820322E34382E31204F46462E00434FEA
:1008B0004E4649475F4558504F5254004D454154AC
:1008C0005041434B00434F4F4C45525F54454D50B0
:1008D00045524154555245004348414D4245525FAF
:1008E00054454D504552415455524500424142599C
:1008F0005354455050494E470041524353004D4FC9
:1009000054494F4E5F4D4F44455300544845524D56
:10091000414C5F50524F54454354494F4E00455847
:1009200054454E4445445F4D3230004C4F4E475F76
:1009300046494C454E414D45004155544F52455056
:100940004F52545F53445F535441545553005344E2
:100950005F57524954450052455045415400534455
:10096000434152440050524F4D50545F53555050E4
:100970004F525400484F53545F414354494F4E5FC8
:10098000434F4D4D414E445300454D455247454E12
:1009900043595F50415253455200434153455F4CC8
:1009A000494748545F4252494748544E45535300C3
:1009B000544F47474C455F4C494748545300534FA9
:1009C0004654574152455F504F5745520042554992
:1009D0004C445F50455243454E54004C4556454C9F
:1009E000494E475F44415441005A5F50524F42457F
:1009F0000052554E4F5554004155544F4C455645A5
:100A00004C005052494E545F4A4F420050524F479B
:100A100052455353004155544F5245504F52545F25
:100A200054454D50004155544F5245504F52545F1C
:100A3000504F5300564F4C554D4554524943004575
:100A40004550524F4D0042494E4152595F46494C24
:100A5000455F5452414E5346455200534552494119
:100A60004C5F584F4E5F584F4646004649524D57CF
:100A70004152455F4E414D453A4D61726C696E2061
:100A80004241544348544833442052454D4958202C
:100A9000322E34382E312028417567202034203200
:100AA0003032322030323A30313A32302920534F0E
:100AB000555243455F434F44455F55524C3A544865
:100AC000334453747564696F2E636F6D2050524FB9
:100AD000544F434F4C5F56455253494F4E3A312E77
:100AE00030204D414348494E455F545950453A42A4
:100AF00041544348544833442052454D49582032CC
:100B00002E34382E312045585452554445525F43B7
:100B10004F554E543A3120555549443A6365646502
:100B2000326132662D343161322D343734382D390B
:100B30006231322D63353563363266333637666659
:100B40000A002F2F004D31343520533C696E646507
:100B5000783E206F7574206F662072616E67652025
:100B600028302D31290A0020580020204D61783A84
:100B70002000200020204D696E3A2000203B2000FC
:100B800020204D32313120530046523A0020466C2D
:100B90006F773A200064697300656E0043290A008C
:100BA00061626C656420286D696E2074656D7020CB
:100BB00000436F6C6420657874727564657320619E
:100BC00072652000203B20486F73742068616E645A
:100BD0006C696E67200046696C616D656E74207289
:100BE000756E6F75742000454550524F4D204F4B28
:100BF0000A004D383400446F6E65207072696E745F
:100C0000696E672066696C650A004D3737004D33A1
:100C10003100496E76616C69642065787472756420
:100C200065720A004361703A00436F6F6C696E67CA
:100C30002E2E2E0048656174696E672E2E2E00459B
:100C4000312025530020573A0042656420436F6FDE
:100C50006C696E672E2E2E004265642048656174B3
:100C6000696E672E2E2E0023646566696E652044CA
:100C7000454641554C545F004B6420004B692000B1
:100C80004B702000504944204175746F74756E6537
:100C90002066696E697368656421205075742074DC
:100CA0006865206C617374204B702C204B69206147
:100CB0006E64204B6420636F6E7374616E74732076
:100CC00066726F6D2062656C6F7720696E746F203D
:100CD000436F6E66696775726174696F6E2E680A1C
:100CE00000504944204175746F74756E65206661CB
:100CF000696C6564212074696D656F75740A0050B4
:100D00004944204175746F74756E65206661696C25
:100D10006564212054656D7065726174757265201B
:100D2000746F6F20686967680A00504944204379EE
:100D3000636C65730025532025692F256900204BBE
:100D4000643A2000204B693A2000204B703A200082
:100D500020436C617373696320504944200A00206A
:100D600054753A2000204B753A2000206D61783A86
:100D70002000206D696E3A200020643A2000206235
:100D80006961733A20005761697420666F72206848
:100D90006561742075702E2E2E00504944204175D7
:100DA000746F74756E652073746172740A005049B3
:100DB00044204175746F74756E65206661696C6559
:100DC00064212054656D706572617475726520745C
:100DD0006F6F20686967680A005049442041757444
:100DE0006F74756E65206661696C6564212042616F
:100DF00064206865617465722069640A0050494422
:100E0000204175746F74756E65004572723A207575
:100E100074663820666F6E74206E6F7420696E6918
:100E20007469616C697A65642E004572723A207546
:100E300074663820666F6E74206E6F7420696E69F8
:100E40007469616C697A65642E004572723A207526
:100E500074663820666F6E74206E6F7420696E69D8
:100E60007469616C697A65642E0042656400456E40
:100E7000636C6F73757265002568753A253032684A
:100E8000750025303268753A253032687500253096
:100E900032687527253032687500657272001FE070
:100EA0002010201020101020102020102010303092
:100EB0000840048003001FE03FF03FF03FF01FE0D8
:100EC0001FE03FF03FF03FF00FC0078003003FFFFF
:100ED000F038007030FC3020FC10207810203010EA
:100EE0002C00D02E31D02F7BD02F7BD02E31D02C88
:100EF00000D020301020781020FC1030FC3038005A
:100F0000703FFFF03FFFF0380070318630238710CC
:100F10002787902F87D02F03D020301020781020E3
:100F200078102030102F03D02F87D0278790238769
:100F3000103186303800703FFFF01FFFF81FFFF8B8
:100F400004104002082002082004104008208010ED
:100F500041001041000820800410400000001FFFE5
:100F6000F81FFFF863616E63656C005072696E7400
:100F70002041626F72746564004D323520500A4D15
:100F800032340050617573696E672E2E2E007265C3
:100F900073756D65004D323400454550524F4D20FC
:100FA00056657273696F6E204572726F72004545A7
:100FB00050524F4D20496E646578204572726F72B1
:100FC00000454550524F4D20435243204572726FA9
:100FD00072003F0049676E6F7265005265736574F9
:100FE00000526573657420454550524F4D004C6F5B
:100FF0006164206D6D00556E6C6F6164206D6D00D5
:101000004D33303320553120452569205325690063
:10101000504944204175746F74756E65202A0050E4
:1010200049442D44202A005049442D49202A00508B
:1010300049442D50202A004D617820452056656C8A
:10104000004D6178205A2056656C004D617820591A
:101050002056656C004D617820582056656C004D17
:101060006178204520416363656C004D6178205AAA
:1010700020416363656C004D6178205920416363B2
:10108000656C004D6178205820416363656C0054A5
:10109000726176656C20416363656C0052657472A1
:1010A00061637420416363656C00416363656C0038
:1010B0004D61782045204A65726B004D6178205A59
:1010C000204A65726B004D61782059204A65726B29
:1010D000004D61782058204A65726B00452073747A
:1010E0006570732F6D6D005A2053746570732F6D8A
:1010F0006D00592053746570732F6D6D0058205327
:10110000746570732F6D6D00416476616E63656404
:101110002053657474696E67730046696C616D6510
:101120006E740054656D70657261747572650053FC
:10113000746570732F6D6D004A65726B0041636357
:10114000656C65726174696F6E0056656C6F63697A
:10115000747900436F6E66696775726174696F6E4A
:10116000003F004E65787420506F696E7400446FC4
:101170006E65004E65787400486F6D696E67205823
:10118000595A00426564004E6F7A7A6C6500466178
:101190006E20537065656400436F6E666967757293
:1011A0006174696F6E003F0043616E63656C004956
:1011B0006E697400526573657420454550524F4DF9
:1011C0000053746F72652053657474696E677300A1
:1011D00050726568656174202420436F6E66004F0D
:1011E0006666004F6E0052756E6F75742053656EA3
:1011F000736F7200416476616E6365642053657439
:1012000074696E6773004D61696E004D373032202E
:10121000542564004D36303020423020542564007F
:101220004D373032203B2564004D37303120542576
:1012300064004368616E67652046696C616D656E28
:1012400074005072656865617420437573746F6DC6
:1012500000507265686561742024004261636B0010
:101260004D363030423000436F6E74696E756500E4
:101270004F6666004F6E0052756E6F757420536531
:101280006E736F72005075726765206D6F726500C6
:10129000524553554D45204F5054494F4E533A00F7
:1012A0005052494E54205041555345440020204E41
:1012B0006F7A7A6C653A2000000C0F00FE07022559
:1012C00003BB017FFE08FE08FE050808060000407B
:1012D000F0C88888987810050808060000C0F888CB
:1012E00088888888F80505050600012030F8302038
:1012F0000508080600002070F820202020E00509DD
:10130000090600FF2070A8A8B88888702007050586
:10131000070001D86C366CD80509090600FFF8A84B
:101320008888888888A8F8050A0A0600FE20505098
:10133000505088A8A8887003030306000340A0400B
:10134000FFFFFFFFFFFFFFFFFFFFFFFFFFFFFFFFAD
:10135000FFFFFFFFFFFF0000000605FF0107070674
:10136000020080808080800080030303060105A0C6
:10137000A0A005060606000050F85050F8500509D8
:10138000090600FF2070A8A07028A8702005070794
:10139000060000C8C81020409898050707060000FE
:1013A00040A0A040A8906801030306020580808049
:1013B0000309090601FF204040808080404020034F
:1013C00009090601FF804040202020404080050799
:1013D0000706000020A8702070A82005050506005B
:1013E000012020F820200203030601FFC0408005F1
:1013F0000101060003F8020202060100C0C0050751
:10140000070600000810102040408005070706006E
:1014100000708898A8C8887003070706010040C0BC
:1014200040404040E0050707060000708808102093
:1014300040F8050707060000F80810300888700516
:10144000070706000010305090F810100507070637
:101450000000F880F00808887005070706000030D3
:101460004080F0888870050707060000F808101013
:101470002020200507070600007088887088887083
:1014800005070706000070888878081060020505C7
:10149000060100C0C000C0C00206060601FFC0C0B1
:1014A00000C0408003050506010120408040200562
:1014B0000303060002F800F8030505060101804059
:1014C00020408005070706000070881020200020BB
:1014D0000507070600007088B8A8B88070050707E0
:1014E000060000708888F8888888050707060000CD
:1014F000F04848704848F0050707060000708880EB
:1015000080808870050707060000F0484848484872
:10151000F0050707060000F88080F08080F80507D6
:1015200007060000F88080F080808005070706002D
:1015300000708880809888700507070600008888FA
:1015400088F8888888030707060100E0404040408B
:1015500040E00507070600003810101010906005E5
:1015600007070600008890A0C0A09088050707061E
:101570000000808080808080F805070706000088D2
:10158000D8A8888888880507070600008888C8A822
:101590009888880507070600007088888888887002
:1015A000050707060000F08888F08080800507079F
:1015B00006000070888888A8906805070706000064
:1015C000F08888F0A09088050707060000708880E2
:1015D00070088870050707060000F82020202020EA
:1015E0002005070706000088888888888870050716
:1015F00007060000888888885050200507070600E5
:101600000088888888A8A8500507070600008888F1
:101610005020508888050707060000888850202041
:101620002020050707060000F80810204080F80376
:1016300009090601FFE080808080808080E0050746
:101640000706000080404020101008030909060129
:10165000FFE020202020202020E0050303060005D5
:101660002050880501010600FEF80303030601056A
:101670008040200505050600007008788878050779
:10168000070600008080F0888888F00505050600C0
:1016900000708080887005070706000008087888B9
:1016A0008888780505050600007088F080700507B9
:1016B00007060000304840E04040400507070600AC
:1016C000FE7088888878087005070706000080800B
:1016D000F0888888880307070601004000C0404062
:1016E00040E00409090601FE1000301010101090AF
:1016F0006005070706000080808890E09088030757
:1017000007060100C04040404040E00505050600D6
:1017100000D0A8A8A8A8050505060000B0C88888BC
:10172000880505050600007088888870050707068B
:1017300000FEF0888888F080800507070600FE78A4
:10174000888888780808050505060000B0C88080EC
:101750008005050506000078807008F0050707067B
:1017600000002020F820202018050505060000882C
:101770008888986805050506000088888850200537
:1017800005050600008888A8A85005050506000084
:1017900088502050880507070600FE88888850205A
:1017A0004080050505060000F8102040F8030909EF
:1017B0000601FF20404040804040402001090906CA
:1017C00002FF80808080808080808003090906017C
:1017D000FF80404040204040408005030306000257
:1017E00048A890FF41425300504C41005061726B39
:1017F000696E672E2E2E0000005761697420666F97
:10180000720066696C616D656E74206368616E67F5
:101810006500746F2073746172740057616974207D
:10182000666F720066696C616D656E7420756E6CB2
:101830006F616400004E6F7A7A6C65206865617430
:10184000696E6700506C6561736520776169742EFD
:101850002E2E0000507265737320627574746F6E63
:1018600000746F2068656174206E6F7A7A6C650011
:1018700000496E736572742066696C616D656E7483
:1018800000616E6420707265737320627574746F8A
:101890006E00746F20636F6E74696E7565005761BA
:1018A000697420666F720066696C616D656E742084
:1018B0006C6F6164000050726573732042757474BC
:1018C0006F6E00746F20726573756D65207072693C
:1018D0006E7400005761697420666F7220707269BF
:1018E0006E7400746F20726573756D652E2E2E00F8
:1018F000005761697420666F720066696C616D657E
:101900006E742070757267650000313230003000EF
:101910004245443A204550434F53203130304B002C
:1019200052756E617761792057617463683A204F10
:101930004E004D61782054656D7000323735004D92
:10194000696E2054656D7000300045313A20455075
:10195000434F53203130304B005053550047656E94
:10196000657269630050726F746F636F6C00312E23
:1019700030004261756400323530303030004754F9
:101980003235363020332E780045787472756465B0
:1019900072730031005448334453747564696F2E78
:1019A000636F6D00424154434854483344205245CC
:1019B0004D495820322E34382E310030312D3031FF
:1019C0002D31393730004241544348544833442084
:1019D00052454D495820322E34382E31004D617217
:1019E0006C696E00546865726D6973746F72730010
:1019F000426F61726420496E666F005072696E7446
:101A0000657220496E666F004D61696E003F00424D
:101A100061636B0053746F70003F004E4F00594577
:101A200053004E6F205344005072696E74206672EA
:101A30006F6D205344004368616E67652053440016
:101A40004D32310041626F7574205072696E746559
:101A500072004368616E67652046696C616D656EF2
:101A60007400436F6E66696775726174696F6E00AA
:101A700054656D7065726174757265004D6F74693F
:101A80006F6E00526573756D65205072696E7400DB
:101A900054756E650053746F70205072696E7400D7
:101AA0005061757365205072696E74004175746F72
:101AB00020486F6D650043616E6E6F7420656E74B3
:101AC0006572207375626469723A20000A4D32347F
:101AD000004D32332025730002202E2E004D616907
:101AE0006E002100486F74656E6420746F6F206310
:101AF0006F6C64004261636B0050726F6365656474
:101B0000004D6F74696F6E0044697361626C65208B
:101B10005374657070657273004D383400426564AB
:101B2000205472616D6D696E67004732385A004704
:101B300032385900486F6D652040004732385800F0
:101B40004175746F20486F6D6500473238004D61F4
:101B5000696E005072656865617420242042656476
:101B60000050726568656174202420456E640054DD
:101B7000656D706572617475726500E817E41743EE
:101B80006F6F6C646F776E0050726568656174206A
:101B9000240046616E205370656564207E004265B6
:101BA00064004E6F7A7A6C65004D61696E00426127
:101BB000627973746570205A00466C6F77004661D5
:101BC0006E205370656564207E00426564004E6F30
:101BD0007A7A6C65005370656564004D61696E00CA
:101BE000486F6D696E67204661696C6564006F704F
:101BF000656E00545249474745524544003A20001B
:101C000066696C616D656E74007A5F6D696E0079EE
:101C10005F6D696E00785F6D696E005265706F72FE
:101C200074696E6720656E6473746F70207374617D
:101C30007475730A0020636F6C6420657874727524
:101C400073696F6E2070726576656E7465640A00E4
:101C50000000000000000000000000005761726EEC
:101C6000696E673A20486F6D696E672042756D70C6
:101C70002044697669736F72203C20310A000202A9
:101C80000400007A4300007A4300007A430000A079
:101C9000400000A0400000004000007A4300007AAD
:101CA0004300007A43000000000000000000000034
:101CB0000053657474696E67732053746F72656442
:101CC00000290A002062797465733B2063726320E7
:101CD0000053657474696E67732053746F72656422
:101CE00020280048617264636F64656420446566FF
:101CF00061756C742053657474696E6773204C6FE2
:101D0000616465640A0020286D6D2900204600206A
:101D1000420020480020204D3134352053004D61D1
:101D200074657269616C206865617475702070619A
:101D300072616D6574657273004F4646004F4E00C8
:101D4000203B2053656E736F72200020204D34318C
:101D50003220530046696C616D656E742072756E39
:101D60006F75742073656E736F720020204D31346F
:101D7000392043203B20556E69747320696E2043DF
:101D8000656C736975730A0054656D706572617472
:101D900075726520556E69747300202047323120BA
:101DA0003B004C696E65617220556E697473004525
:101DB0004550524F4D206461746173697A652065A6
:101DC00072726F722E0A00290A002062797465739C
:101DD0003B2063726320002073746F72656420730C
:101DE000657474696E67732072657472696576656F
:101DF00064202800202863616C63756C61746564DD
:101E000029210A0020213D2000454550524F4D20F8
:101E1000435243206D69736D61746368202D2028DF
:101E200073746F7265642920002053697A653A20C3
:101E300000496E6465783A20000000C8430000C87D
:101E40004300007041000048430000A0420000A091
:101E5000420000C8430000BE42C4090000C409009B
:101E600000F401000088130000204D61726C696E5F
:101E70003D563836290A00454550524F4D2076656B
:101E80007273696F6E206D69736D61746368202869
:101E9000454550524F4D3D0024F4D43050C38E2060
:101EA000C2A24017828B7011127A910D816CD90AEF
:101EB000A861E108C7586607615143061E4B5D05DE
:101EC000C145A7041A411104093D98037139310332
:101ED0004036DB0265339102D4305402802E1D025D
:101EE000632CEE01752AC501B028A00110278101DD
:101EF0008F2564012B244B01E0223401AC211F010A
:101F00008D200D01801FFC00841EED00971DDF0059
:101F1000B81CD200E61BC600201BBC00641AB2002D
:101F2000B219A8000A19A0006A189900D1179100E7
:101F300040178B00B516840031167E00B31579006A
:101F40003A157300C7146F0058146A00EE13660048
:101F50008813630025135E00C7125B006C125700E4
:101F600015125400C111510070114F0021114B0086
:101F7000D61049008D104700461044000210420060
:101F8000C00F4000800F3E00420F3C00060F3B0098
:101F9000CB0E3800930E37005C0E3500270E340050
:101FA000F30D3200C10D3100900D3000600D2E0098
:101FB000320D2D00050D2C00D90C2B00AE0C290084
:101FC000850C29005C0C2700350C27000E0C260020
:101FD000E80B2400C40B2400A00B23007D0B23007E
:101FE0005A0B2100390B2100180B2000F80A1F00A2
:101FF000D90A1E00BB0A1E009D0A1D00800A1D0092
:10200000630A1C00470A1B002C0A1B00110A1A0055
:10201000F7091A00DD091900C4091900AB091900F4
:10202000920917007B091800630917004C09160074
:1020300036091600200916000A091500F5081500D2
:10204000E0081400CC081400B8081400A408140018
:10205000900813007D0812006B0813005808120046
:10206000460812003408110023081100120811005C
:1020700001081100F0071000E0071000D007100061
:10208000C0071000B0070F00A107100091070E0055
:1020900083070F0074070F0065070E0057070E0037
:1020A00049070E003B070D002E070E0020070D000C
:1020B00013070D0006070D00F9060C00ED060D00D4
:1020C000E0060C00D4060C00C8060C00BC060C0090
:1020D000B0060C00A4060B0099060C008D060B0040
:1020E00082060B0077060B006C060B0061060A00E7
:1020F00057060B004C060A0042060A0038060A0082
:102100002E060A0024060A001A060A001006090014
:1021100007060A00FD050900F4050900EB050900A2
:10212000E2050900D9050900D0050900C705090025
:10213000BE050900B5050800AD050800A5050900A4
:102140009C050800940508008C050800840508001B
:102150007C050800740508006C050700650508008B
:102160005D050700560508004E05070047050700F6
:102170004005080038050700310507002A0507005B
:10218000230507001C050600160507000F050700BC
:102190000805060002050700FB040600F504070019
:1021A000EE040600E8040600E2040700DB04060073
:1021B000D5040600CF040600C9040600C3040600C7
:1021C000BD040600B7040600B1040500AC04060017
:1021D000A6040600A00405009B0406009504050063
:1021E000900406008A0405008504050080040600AA
:1021F0007A04050075040500700405006B040500F1
:1022000066040500610405005C0405005704050030
:10221000520405004D040500480405004304050070
:102220003E0404003A0405003504050030040400AF
:102230002C04050027040400230405001E040400E8
:102240001A04040016040500110404000D0404001F
:10225000090405000404040000040400FC03040055
:10226000F8030400F4030400F0030400EC0304008A
:10227000E8030400E4030400E0030400DC030400BA
:10228000D8030400D4030400D0030400CC030400EA
:10229000C8030300C503030024F404D9201BC40CA5
:1022A0005C0E9804C4095F0265077101F405F9002A
:1022B000FB04B30048048700C103690058035500BC
:1022C00003034500BE023A008402310053022A0093
:1022D0002902250004022000E4011C00C8011900A5
:1022E000AF01170098011400840113007101100060
:1022F0006101100051010E0043010D0036010B0079
:102300002B010B0020010B00150109000C01090035
:1023100003010800FB000800F3000800EB000700C1
:10232000E4000600DE000600D8000600D200060029
:10233000CC000500C7000500C2000500BD00040078
:10234000B9000400B5000400B1000400AD000400B1
:10235000A9000400A5000300A20003009F000400E0
:102360009B00030098000300950002009300030007
:10237000900003008D0002008B0003008800020023
:102380008600020084000300810002007F0002003A
:102390007D0002007B00020079000200770001004E
:1023A0007600020074000200720001007100020059
:1023B0006F0002006D0001006C0002006A00010065
:1023C000690002006700010066000100650001006D
:1023D0006400020062000100610001006000010071
:1023E0005F0002005D0001005C0001005B00010075
:1023F0005A00010059000100580001005700010077
:102400005600010055000100540001005300000077
:102410005300010052000100510001005000010072
:102420004F0001004E0000004E0001004D00010071
:102430004C0001004B0000004B0001004A0001006D
:102440004900010048000000480001004700010069
:102450004600000046000100450000004500010064
:10246000440001004300000043000100420000005E
:102470004200010041000000410001004000010055
:102480003F0000003F0001003E0000003E00010050
:102490003D0000003D0001003C0000003C00000049
:1024A0003C0001003B0000003B0001003A0000003E
:1024B0003A00010039000000390001003800000036
:1024C000380000003800010037000000370001002C
:1024D0003600000036000000360001003500000024
:1024E0003500000035000100340000003400000019
:1024F000340001003300000033000000330001000D
:102500003200000032000000320001003100000003
:1025100031000000310001003000000030000000F8
:10252000300001002F0000002F0000002F000000ED
:102530002F0001002E0000002E0000002E000100E0
:102540002D0000002D0000002D0000002D000100D6
:102550002C0000002C0000002C0000002C000100CA
:102560002B0000002B0000002B0000002B000100BE
:102570002A0000002A0000002A0000002A000100B2
:1025800029000000290000002900000029000000A7
:102590002900010028000000280000002800000099
:1025A000280000002800010027000000270000008C
:1025B000270000002700000027000100260000007F
:1025C0002600000026000000260000002600010072
:1025D0002500000025000000250000002500000067
:1025E0002500000025000100240000002400000058
:1025F000240000002400000024000100230000004B
:10260000230000002300000023000000230000003E
:10261000230000002300010022000000220000002F
:102620002200000022000000220000002200010021
:102630002100000021000000210000002100000016
:102640002100000021000000210001002000000006
:1026500020000000200000002000000020000000FA
:102660002000000020000000200001001F000000EA
:102670001F0000001F0000001F0000001F000000DE
:102680001F0000001F0001001E0000001E000000CF
:102690001E0000001E000000043700001E2900007C
:1026A000511B00005810000010090000CC0400006D
:1026B000780200004101000020436F756E742058BD
:1026C0003A00426564004531004500626564002CB3
:1026D0002073797374656D2073746F7070656421F5
:1026E000204865617465725F49443A20004865611D
:1026F00074696E67204661696C6564004865617441
:10270000696E67206661696C6564004572723A2083
:102710004D415854454D50004D415854454D502061
:10272000747269676765726564004572723A204D1C
:10273000494E54454D50004D494E54454D5020741E
:10274000726967676572656400544845524D414C33
:102750002052554E4157415900546865726D616C65
:102760002052756E6177617900202F002042403A37
:102770000020403A0020573A007C3C3E5E2B3D3F13
:102780002F5B5D3B2C2A225C0043616E6E6F7420D0
:102790006F70656E20737562646972200053442007
:1027A000496E6974204661696C005344206361720C
:1027B00064206F6B0A006F70656E526F6F742066D5
:1027C00061696C65640A00766F6C756D652E696E63
:1027D0006974206661696C65640A004E6F20534419
:1027E00020636172640A002E0A006F70656E2066B5
:1027F00061696C65642C2046696C653A2000466905
:102800006C652073656C65637465640A00205369A8
:102810007A653A200046696C65206F70656E656464
:102820003A2000454E4420535542524F5554494E8C
:10283000450A002220706F73002220706172656E5D
:10284000743A2200535542524F5554494E45204345
:10285000414C4C207461726765743A220053756272
:1028600063616C6C204F766572666C6F770045789B
:10287000636565646564206D617820535542524FED
:102880005554494E452064657074683A0057726922
:1028900074696E6720746F2066696C653A20006603
:1028A0007265736800646F696E67002066696C65A5
:1028B0003A20004E6F772000020000000000000068
:1028C0000000000000000000000000000000000008
:1028D00000000000000000000000000000000000F8
:1028E00000000000000000000000000000000000E8
:1028F00003C0000000000000000000000000000015
:1029000003C0000000000000000000000000000004
:1029100003C00000000000000000000000000000F4
:1029200003C00000000000000000000000000000E4
:1029300003C00000000000000000000000000000D4
:1029400003C00000000000000000000000000000C4
:1029500003C00000000000000000000000000000B4
:1029600003C00000000000000000000000000000A4
:1029700007E0000000000000000000000000000070
:102980001FF8000000000000000000000000000030
:102990007FFE0000000000000000000000000000BA
:1029A000FFFF000000000000000000000000000326
:1029B000FFFFC00000000000000000000000000752
:1029C000FC3FE00000000000000000000000000FDD
:1029D000F81FF00000000000000000000000000FE1
:1029E000F00FF00000000000000000000000000FE9
:1029F000FC3FF00000000000000000000000000F9D
:102A0000FF7FF00000000000000000000000000F49
:102A1000FFFFF00000000000000000000000000FB9
:102A2000FFFFF00000000000000000000000000FA9
:102A30009FF9F00000000000000000000000000FFF
:102A40008FF1F00000000000000000000000000F07
:102A500083C1F00000000000000000000000000F33
:102A600083C1F00000000000000000000000000F23
:102A700083C1F00000000000000000000000001F03
:102A8000C3C3F80000000000000000000000007F49
:102A9000F3CFFE000000000000000000000000FF77
:102AA000FBDFFF000000000000000000000003FF4B
:102AB000FFFFFFC0000000000000000000000FFD4D
:102AC000FFFFBFF0000000000000000000000FF852
:102AD000FFFF1FF0000000000000000000000FE0FA
:102AE0003FFC07F0000000000000000000000F8025
:102AF0000FF001F0000000000000000000000F00D7
:102B000007E000F0000000000000000000000000EE
:102B100000000000000000000000000000000000B5
:102B200000000000000000000000000000000000A5
:102B30000000000000000000000000000000000095
:102B40000000000000000000000000000000000085
:102B50000000000000000000000000000000000075
:102B60000000000000000000000000000000000065
:102B7000000000000000000000000000001FFFFC3B
:102B80001F1FE3FFC000000000000000001FFFFC4B
:102B90001F3FF3FFE000000000000000001FFFFCEB
:102BA0001F3FFBFFF000000000000000001FFFFCC3
:102BB0001F7CFBFFF8000000000000000001F07C1B
:102BC0001F7C7BE1F8000000000000000001F07CA9
:102BD0001F787BE0F8000000000000000001F07F9B
:102BE000FF03FBE078000000000000000001F07F20
:102BF000FF03F3E078000000000000000001F07F18
:102C0000FF03FBE078000000000000000001F07FFF
:102C1000FF03FBE078000000000000000001F07CF2
:102C20001F007BE078000000000000000001F07C45
:102C30001F787BE0F8000000000000000001F07C3D
:102C40001F787BE1F8000000000000000001F07C2C
:102C50001F7CFBFFF0000000000000000001F07C82
:102C60001F7FFBFFF0000000000000000001F07C6F
:102C70001F3FF3FFE0000000000000000001F07CB7
:102C80001F1FE3FF800000000000000000000000A4
:102C90000000000000000000000000000000000034
:102CA0000000000000000000000000000000000024
:102CB0000000000000000000007468336473747545
:102CC00064696F2E636F6D0042415443485448332A
:102CD000442052454D495820322E34382E31001FA1
:102CE000FFFFFFFFFFFF600000000001FF4000004A
:102CF000000000FF8000000000007F83CF00000C78
:102D0000303F87FF80000C301F867980000C000F59
:102D10008C30C7838C30E78C30CFC7CC31F38C300C
:102D2000DCECEC33B98C30D86C6C33198C30D06C53
:102D30000C33198C30D86C0C33198C30DC6C0E3B96
:102D4000198C30CF7C079F198C30C77C038F1940BA
:102D5000000000000002600000000000061FFFFFEE
:102D6000FFFFFFF870012C0190012701B001220143
:102D7000C0011D01F00118011002130130020E0103
:102D80006002090190020401C002FF000003FA0082
:102D90004003F5008003F000D003EB002004E600C0
:102DA0007004E100E004DC004005D700C005D2005B
:102DB0004006CD00D006C8008007C3003008BE0022
:102DC000F008B900C009B400B00AAF00B00BAA0007
:102DD000D00CA500000EA000500F9B00C010960064
:102DE0005012910000148C00C0158700B0178200AB
:102DF000B0197D00D01B7800001E730040206E00CB
:102E000090226900F024640040275F0090295A0056
:102E1000E02B5500102E500020304B0010324600A1
:102E2000E033410090353C001037370070383200F5
:102E3000A0392D00B03A2800A03B2300603C1E00C2
:102E4000103D1900903D1400103E0F00703E0A0026
:102E5000C03E0500003F0000403FFBFF803FF6FF03
:102E6000C03FF1FF2020506C616E6E657242756646
:102E700066657242797465733A2000204672656512
:102E8000204D656D6F72793A200020436F6D706937
:102E90006C65643A2041756720203420323032322C
:102EA0000A00204C61737420557064617465643A43
:102EB0002030312D30312D31393730207C20417593
:102EC00074686F723A2054483344205374756469AF
:102ED0006F0A004D61726C696E2042415443485440
:102EE0004833442052454D495820322E34382E3133
:102EF0000A0020536F6674776172652052657365AE
:102F0000740A00205761746368646F6720526573A8
:102F100065740A002042726F776E206F75742052BC
:102F2000657365740A002045787465726E616C2063
:102F300052657365740A00506F77657255700A00A8
:102F400073746172740A004732385859004D313039
:102F50003031006F6B006572726F72207772697426
:102F6000696E6720746F2066696C650A00446F6E35
:102F70006520736176696E672066696C652E0A004C
:102F80004D323900456E6473746F707300255320A1
:102F9000256320256320256320256300205A3A00FD
:102FA00020593A0020583A00656E6473746F70734C
:102FB000206869743A200000000A0B02090C0D0E0B
:102FC00008070304010000000000000000000000EA
:102FD00000000000000000000000000000000000F1
:102FE00000000012111000000000000000000000AE
:102FF00000000000000000000000000000004D6F15
:1030000076652025736D6D004D6F766520302E310D
:103010006D6D004D6F766520316D6D004D6F76657D
:103020002031306D6D004D6F7665204178697300F9
:103030004D6F7665204578747275646572004D6FCA
:103040007665205A004D6F76652059004D6F766584
:10305000205800FFFFFF4241544348544833442066
:1030600052454D495820322E34382E312052656158
:1030700064792E005072696E74696E672E2E2E0070
:103080005072696E742050617573656400220A0085
:10309000556E6B6E6F776E20636F6D6D616E643A07
:1030A000202200204500205A0020590020204D39C0
:1030B0003220580053746570732070657220756EED
:1030C0006974003B20004572726F722077726974D8
:1030D000696E6720746F20454550524F4D210A009C
:1030E00020636F6C6420657874727573696F6E20ED
:1030F00070726576656E7465640A00486F6D652050
:103100002573257325732046697273740020453A30
:1031100000205A3A0020593A00583A006F6B0A00D2
:10312000526573656E643A20000000220025002875
:10313000002B002E003100340002010000050108C0
:10314000010B0100002100240027002A002D00307F
:1031500000330001010000040107010A0105050513
:1031600005070508080808020202020A0A080804FE
:10317000040404010101010101010103030303032C
:10318000030303040707070C0C0C0C0C0C0C0C02BB
:1031900002020206060606060606060B0B0B0B0BC2
:1031A0000B0B0B01021020200808102040102040BB
:1031B00080020102010804020101020408102040FB
:1031C0008080402010080402018004020180402019
:1031D0001008040201080402010102040810204042
:1031E00080010204081020408000E8E8E2EF11248A
:1031F0001FBECFEFD1E2DEBFCDBF00E00CBF84B772
:1032000080930E1914BE0FB6F894A89580916000B3
:10321000886180936000109260000FBE13E0A0E010
:10322000B2E0E8E3FDEF01E00BBF02C007900D92B2
:10323000A236B107D9F729E1A2E6B3E001C01D9299
:10324000AE30B207E1F718E1C6EFD8E100E006C002
:1032500021970109802FFE010E943CFBC53FD10749
:1032600080E00807A9F70E94BBE90C948BFE0C9440
:10327000000081E080935B05089582E080935B0508
:103280000895CF93DF93EC01CB01BA010E9481F442
:1032900029EC38EC48EC5EE30E9427FC20E030E0AB
:1032A00040E05FE30E944BFB0E9494FC6883DF9147
:1032B000CF910895E0918C0786E0E802F001112497
:1032C000E85AF84F80916E0790E0958384830895C3
:1032D0008F929F92AF92BF92CF92DF92EF92FF9226
:1032E000CF936B017C0120E030E0A9010E947BF4C8
:1032F00087FD9FC06DEB77E386E095E3A70196011C
:103300000E944BFB6B017C0120E030E040E251E485
:103310000E94E0F420E030E048EC52E40E94E0F447
:103320004B015C0120E030E0A901C701B6010E9419
:103330007BF420E030E040EA50E487FF04C020E066
:1033400030E040EA50ECC501B4010E944BFB20E0A4
:1033500030E040E251E40E9427FC0E948FFC6B01A8
:103360007C018BE2F7FE09C0F094E094D094C09405
:10337000C11CD11CE11CF11C8DE280936005C701CA
:10338000B60120E137E240E050E00E9420FB8AE0F5
:10339000882E912CA12CB12CCA01B901A501940150
:1033A0000E9420FB605D60936105C701B60128EEB5
:1033B00033E040E050E00E9420FBCA01B901A501C2
:1033C00094010E9420FB605D60936205C701B60115
:1033D00024E630E040E050E00E9420FBCA01B90141
:1033E000A50194010E9420FB605D609363058EE25D
:1033F00080936405C701B601A50194010E9420FBDA
:10340000C62FCA01B901A50194010E9420FB605D8D
:1034100060936505C05DC093660580E695E0CF9139
:10342000FF90EF90DF90CF90BF90AF909F908F90E4
:1034300008956DEB77E386E095EB60CF8F929F92D6
:10344000AF92BF92CF92DF92EF92FF92CF936B0138
:103450007C0120E030E0A9010E947BF487FDAAC036
:103460006DEB77E386E095E3A70196010E944BFBA5
:103470006B017C0120E030E0A9010E947BF487FF12
:103480009EC0C701B601905820E030E040E251E410
:103490000E94E0F420E030E040E251E40E94E0F4D9
:1034A00020E030E040EA50E40E944BFB20E030E0B6
:1034B00040E251E40E9427FC0E948FFC6B017C01DA
:1034C00080E28093600560E280E1C81687E2D8065A
:1034D000E104F1048CF0C701B60120E137E240E0DD
:1034E00050E00E9420FBCA01B9012AE030E040E030
:1034F00050E00E9420FB605D6093610560E288EE11
:10350000C81683E0D806E104F1048CF0C701B601C7
:1035100028EE33E040E050E00E9420FBCA01B901F0
:103520002AE030E040E050E00E9420FB605D6093C4
:10353000620560E284E6C816D104E104F1048CF06F
:10354000C701B60124E630E040E050E00E9420FBD5
:10355000CA01B9012AE030E040E050E00E9420FBBF
:10356000605D609363058AE0882E912CA12CB12CBC
:10357000C701B601A50194010E9420FBC62FCA0114
:10358000B901A50194010E9420FB605D6093640570
:103590008EE280936505C05DC093660580E695E088
:1035A000CF91FF90EF90DF90CF90BF90AF909F9022
:1035B0008F9008956DEB77E386E095EB55CF20E093
:1035C00030E040E251E4C701B60162CFCF93DF9310
:1035D000EC01CB01BA010E9481F420E030E040E22E
:1035E00051E40E9427FC688379838A839B83DF915F
:1035F000CF910895CF93DF93EC01CB01BA010E94E4
:1036000081F420E030E040E251E40E9427FC68832E
:1036100079838A839B83DF91CF9108950E9481F4FF
:1036200020E030E040E251E40E9427FC07CFCF9336
:10363000DF93EC01CB01BA010E9481F468837983A6
:103640008A839B83DF91CF910895CF93DF93EC0121
:10365000CB01BA010E9481F4688379838A839B83BA
:10366000DF91CF910895CF93DF93EC01CB01BA01A5
:103670000E9481F42AE037ED43E25DE30E9427FCDB
:103680000E9494FC688379838A839B83DF91CF9126
:103690000895CF93DF93EC01CB01BA010E9481F42E
:1036A0002AE037ED43E25DE30E9427FC68837983DB
:1036B0008A839B83DF91CF910895CF93DF93EC01B1
:1036C000CB01BA010E9481F4688379838A839B834A
:1036D000DF91CF910895CF93DF93EC01CB01BA0135
:1036E0000E9481F40E948FFC79836883DF91CF91DF
:1036F0000895CF93DF93EC01CB01BA010E9481F4CE
:1037000020E030E048EC52E40E9427FC6883798393
:103710008A839B83DF91CF9108950E9481F420E0FA
:1037200030E048EC52E40E9427FCD2CD2CEA35EC84
:1037300047E25EE360914E0570914F058091500520
:10374000909151050E9427FC6093AA057093AB05E8
:103750008093AC059093AD0508952CEA35EC47E2D3
:103760005EE36091520570915305809154059091EC
:1037700055050E94E0F46093A6057093A705809319
:10378000A8059093A9050895FC0184910895FC0172
:1037900080810895FC01A081B1811C92A281B38136
:1037A0008C918F5F8C930280F381E02D90818CE06F
:1037B000989F800D1124E2E1F5E113AE84AF0895E6
:1037C000009751F0FC0180E09191992331F0907CB9
:1037D0009038D1F38F5FF8CF80E00895589800C0FB
:1037E00087FD3BC04198589A00C000C0589800C05F
:1037F00086FD3FC04198589A00C000C0589800C04C
:1038000085FD35C04198589A00C000C0589800C046
:1038100084FD2BC04198589A00C000C0589800C041
:1038200083FD21C04198589A00C000C0589800C03C
:1038300082FD17C04198589A00C000C0589800C037
:1038400081FD0DC04198589A00C000C0589800C032
:103850004198589A00C000C00895419AC4CF419A37
:10386000F2CF419AE8CF419ADECF419AD4CF419A24
:10387000CACF419AC0CF90E080E00895CF93DF9304
:10388000DB01F9019C919130C1F0943080F09450AB
:103890009C938830D1F480819181009771F00197D9
:1038A00091838083480F591FEA01188206C08C3526
:1038B00039F49C5F9C93943041F4DF91CF9108954B
:1038C0008B3339F781E08C93F8CF20813181B901B6
:1038D0006F5F7F4F71836083420F531FEA018883BC
:1038E000808191818F3591056CF7E7CF0F931F93FE
:1038F00081E000916516109166162091671630914F
:10390000681640916116509162166091631670912D
:103910006416041715072607370708F480E01F917F
:103920000F91089590E080E00895209197048330EE
:1039300021F425FD0CC024FD0CC030E0A90102C01B
:10394000559547958A95E2F7CA018170089581E0FF
:10395000089580E008958091B30484FD0BC08091A8
:10396000B50487FD07C09091B604937081E019F407
:1039700080E0089581E008952FEB280F2A3108F0A8
:1039800047C0E22FF0E08091B3049091B404A0917D
:10399000B504B091B60404C0B695A79597958795E0
:1039A0002A95D2F780FD02C081700895E756FB4F3B
:1039B000E081EE2341F18091A6079091A707E80FDF
:1039C000F92FF11D808190ED980F9A3030F08E32F2
:1039D00051F4818180538A3098F4F0938C04E09301
:1039E0008B0481E008958D3211F08B3249F481818E
:1039F00090ED980F9A3088F38E3211F48281EACFDD
:103A0000F0E0E0E0EACF10928C0410928B04E9CF52
:103A100080E0089510925A0584E680936F0408951B
:103A2000809A88980895CF92DF92EF92FF926B016F
:103A30007C0120E030E0A9010E947BF487FD26C0D4
:103A40006DEB77E386E095E3A70196010E944BFBBF
:103A50006B017C0120E030E0A9010E947BF420E0B2
:103A600030E040E05FE387FF04C020E030E040E06A
:103A70005FEBC701B6010E944BFB0E948FFCCB019C
:103A8000FF90EF90DF90CF900C944AA26DEB77E31C
:103A900086E095EBD9CF0E9481F4C5CF0E9481F4D6
:103AA0000E948FFCCB010C944AA20E9481F429EC65
:103AB00038EC48EC5EE30E9427FC20E030E040E078
:103AC0005FE30E944BFB0E9494FC862F0C947FA224
:103AD00080E090E0A0EAB0E48093080D9093090D97
:103AE000A0930A0DB0930B0D89EB92E00E94BC9558
:103AF000E091570580E090E0AAEFB2E4E43009F4E9
:103B00004AC080E090E0A0EFB1E48093000D909374
:103B1000010DA093020DB093030D8093040D9093BB
:103B2000050DA093060DB093070DEE0FFF0BE756A2
:103B3000FD4F808191818330910549F18430910559
:103B4000D9F1029761F480E090E0ACE5B3E48093B2
:103B5000000D9093010DA093020DB093030D81EA27
:103B600092E00E94BC951092080D1092090D1092DF
:103B70000A0D10920B0D89EB92E00E94BC9580918A
:103B800057058F5F8530ECF480935705089580E0EA
:103B900090E0ACE5B3E48093000D9093010DA09309
:103BA000020DB093030D8093040D9093050DA09327
:103BB000060DB093070DD3CF80E090E0ACE5B3E401
:103BC000F2CF109257050895CF93DF9300D01F9244
:103BD000CDB7DEB70E9494FC0E947FF469837A839C
:103BE0008B839C83CE0101960E94789E0F900F904C
:103BF0000F900F90DF91CF9108950E9481F42AE0F9
:103C000037ED43E25DE30E9427FCDECFCF92DF92E7
:103C1000EF92FF92CF93DF9300D01F92CDB7DEB724
:103C20006B017C0120E030E0A9010E947BF487FD5C
:103C30001BC06DEB77E386E095E3A70196010E9438
:103C40004BFB69837A838B839C83CE0101960E9410
:103C5000789E0F900F900F900F90DF91CF91FF9073
:103C6000EF90DF90CF9008956DEB77E386E095EBD2
:103C7000E4CF0E9481F42AE037ED43E25DE30E9445
:103C800027FCC4CF0E9481F4C1CFCF92DF92EF9284
:103C9000FF92CF93DF9300D01F92CDB7DEB76B01B9
:103CA0007C0120E030E0A9010E947BF487FD1BC06D
:103CB0006DEB77E386E095E3A70196010E944BFB4D
:103CC00069837A838B839C83CE0101960E94FB9E3D
:103CD0000F900F900F900F90DF91CF91FF90EF908A
:103CE000DF90CF9008956DEB77E386E095EBE4CF1E
:103CF0000E9481F420E030E040E251E40E9427FC81
:103D0000C4CFCF92DF92EF92FF926B017C0120E053
:103D100030E0A9010E947BF487FD26C06DEB77E3BC
:103D200086E095E3A70196010E944BFB6B017C01A5
:103D300020E030E0A9010E947BF420E030E040E088
:103D40005FE387FF04C020E030E040E05FEBC701A5
:103D5000B6010E944BFB0E948FFCCB01FF90EF90BD
:103D6000DF90CF900C94CBA16DEB77E386E095EBE1
:103D7000D9CF0E9481F4C5CF0C944A870C944A870E
:103D80000C944A870C944A870C94FC860C94FC860D
:103D90000C94FC860C94FC8663E972E084E690E067
:103DA0000E9428AC6AEB72E084E690E00C9428ACA8
:103DB0000E9416848111F0CF68EB71E084E190E0FD
:103DC0000C9428ACCF92DF92EF92FF920F931F9347
:103DD0000E94C2D10091C1041091C2042091C30479
:103DE0003091C4046B017C01C01AD10AE20AF30AC3
:103DF0009701860137FD11C02091C00420952093C2
:103E0000C0046A547C4F8F4F9F4F6093C1047093DE
:103E1000C2048093C3049093C40481E09091C004D1
:103E2000911101C080E01F910F91FF90EF90DF9002
:103E3000CF900895CF93DF93C0915507D091560747
:103E4000209729F160915107709152078091530793
:103E5000909154070E948FFC6E5F7F4F24976C17E0
:103E60007D07ACF470938405609383050E94C2D1F2
:103E7000605C724F8C4F9F4F6093850570938605F1
:103E80008093870590938805DF91CF9108951092D4
:103E90008505109286051092870510928805F4CF4B
:103EA000CF92DF92EF92FF920F931F93CF93909157
:103EB0001F02913009F461C0662351F0109274041E
:103EC0001092700410927104109272041092730494
:103ED000C82F0E94C2D1C0907004D0907104E090AD
:103EE0007204F09073049B01AC012C193D094E093A
:103EF0005F0969017A01F7FC40C020917404C7FD95
:103F000015C04C2F0C2E000C550B4C5F5F4FE22F51
:103F1000022E000CFF0B4E175F077CF144EFC42EFE
:103F2000DD24D394E12CF12C2C1734F438EEC32E7D
:103F300033E0D32EE12CF12CC60ED71EE81EF91E5D
:103F4000C0927004D0927104E0927204F0927304F3
:103F5000022F017010E084E2809FB001819F700DFC
:103F6000701B112460597C4F82E390E00E9428ACC2
:103F7000809174048F5F80937404CF911F910F918F
:103F8000FF90EF90DF90CF900895BF92CF92DF9295
:103F9000EF92FF920F931F93CF93DF936B01E90191
:103FA0004A3009F4D6C0453109F081C0DB011296D0
:103FB000ED91FC911281C681D781739A00C00000F7
:103FC00086E290E00197F0F7012F0295007F20E153
:103FD000B22EB10E88EF02DC00C0000086E290E055
:103FE0000197F0F7103208F0A1C0812F8077806828
:103FF000F5DB802FF3DB00C0000086E290E0019744
:10400000F0F780E8EBDB80E0E9DB00C0000086E24F
:1040100090E00197F0F78AEFE1DB00C0000086E254
:1040200090E00197F0F77E01B0E1EB0EF11C888182
:10403000807FD4DB89918295807FD0DBCE15DF0530
:10404000B1F700C0000086E290E00197F0F71F5F33
:10405000005F1B11BFCF7398D6011296ED91FC91B2
:1040600080819281980F92832181921708F094C1E8
:1040700094819F5F94839381890F821710F08FEF53
:10408000820F8383458150E0440F551F70E060E04C
:10409000868197810E9437FE81E0DF91CF911F9149
:1040A0000F91FF90EF90DF90CF90BF900895FB01AC
:1040B00002811381423309F471C108F479C1463495
:1040C00009F466C1473409F46EC14B3329F789817D
:1040D0002B81D80112967C91129713963C91213036
:1040E00009F4ABC1233009F08CC148EF480F582FB9
:1040F00091E0341708F490E031E0541708F030E014
:10410000492F432B61E0571708F460E0462319F468
:10411000932309F4C1CFFA8030E0F901EB57FD4F4A
:10412000D0802F573D4FF901E08084C180EE810F90
:104130008068807F53DB812F8295807F4FDB00C0BA
:10414000000086E290E00197F0F780E847DB80E826
:104150005BCF6B9A7398399A4198509A589A739A90
:1041600000C0000086E290E00197F0F788E790E059
:10417000CEE9DFE0FE013197F1F70197D9F788EF3B
:104180002DDB00C0000086E290E00197F0F780E2AE
:1041900025DB80E023DB00C0000086E290E0019791
:1041A000F0F780E01BDB80E819DB00C0000086E24E
:1041B00090E00197F0F780E011DB80E10FDB00C0B9
:1041C000000086E290E00197F0F7CE010197F1F749
:1041D000CE010197F1F7CE010197F1F7CE010197DA
:1041E000F1F7CE010197F1F7CE010197F1F7CE017A
:1041F0000197F1F7CE010197F1F7CE010197F1F7A1
:10420000CE010197F1F7CE010197F1F7CE010197A9
:10421000F1F7CE010197F1F7CE010197F1F7219760
:10422000F1F780E2DBDA80E4D9DA00C0000086E250
:1042300090E00197F0F780E2D1DA80E6CFDA00C0B3
:10424000000086E290E00197F0F7D0E0C0E08C2F0C
:1042500080778068C3DA8D2FC1DA00C0000086E263
:1042600090E00197F0F780E8B9DA80E0B7DA00C0B3
:10427000000086E290E00197F0F78AEFAFDA00C025
:10428000000086E290E00197F0F780E2589800C0C5
:104290004198589A00C000C0589800C04198589A58
:1042A00000C000C0589800C04198589A00C000C093
:1042B000589800C04198589A00C000C0589800C053
:1042C0004198589A00C000C0589800C04198589A28
:1042D00000C000C0589800C04198589A00C000C063
:1042E000589800C04198589A00C000C0589800C023
:1042F0004198589A00C000C0589800C04198589AF8
:1043000000C000C0589800C04198589A00C000C032
:10431000589800C04198589A00C000C0589800C0F2
:104320004198589A00C000C0589800C04198589AC7
:1043300000C000C0589800C04198589A00C000C002
:10434000589800C04198589A00C000C000C00000B2
:10435000E6E2F0E03197F0F7815009F097CF88EF6F
:104360003DDA00C0000086E290E00197F0F7CF5FF1
:10437000D05FC03209F06BCF80E030DA80EC2EDA0B
:1043800000C0000086E290E00197F0F7739884CEB9
:10439000F8018581888380CE80E07FCEB901C80195
:1043A0000E948DD379CED80111968C91888374CEDA
:1043B000443191F0473109F06FCE1882D80112963E
:1043C0008C911297898315968C91159781508A83C9
:1043D00013968C918B8360CED80115964C911597CE
:1043E00050E0440F551F70E060E016968D919C914F
:1043F0000E9437FEF80112828081815083831482EB
:104400004BCE381708F448CE871708F445CEFA800B
:10441000E12CD12C243070F47FCEBE01C8010E9463
:104420008DD3898198819D0D98838E0D8983FF0C92
:1044300009F432CEF7FEF6CFF0CF58E0580F482FF0
:1044400057CEEF92FF920F931F93CF93DF93EC0120
:104450008B017A018A859B858617970731F08881C1
:1044600099810E94C4D51B870A87B70188819981E9
:104470000E94CFCD2E813F81820F932F911D9F836C
:104480008E8390E080E0DF91CF911F910F91FF909C
:10449000EF9008959F92AF92BF92CF92DF92EF92EA
:1044A000FF920F931F93CF93DF93EC018B01942E18
:1044B000A52E8A859B858617970731F0888199817B
:1044C0000E94C4D51B870A8788859985019649F57E
:1044D000BC800A818E81080FC880D980D60155968C
:1044E000ED91FC91C6011995B80EE92CFA2C10E05B
:1044F000F70121917F01211127C08E819F81810FBA
:10450000911D9F838E8390E080E0DF91CF911F917A
:104510000F91FF90EF90DF90CF90BF90AF909F9062
:1045200008950E811F81692D7A2D888199810E94BD
:10453000CFCD800F912F911D2885398528173907F8
:1045400038F681E090E0E1CF4B2D602FC6010E944C
:104550001CD6080F180FCCCFDF92EF92FF920F936B
:104560001F93CF93DF93EC01D62E1CAD0BAD7C01D6
:1045700084E0E80EF11CE98DFA8DC7011995412FF1
:10458000480F2D2D602FC7010E941CD69BAD890FAF
:104590008BAF81E090E0DF91CF911F910F91FF9061
:1045A000EF90DF900895CF938091BD04811154C0A6
:1045B00010924D1510924E1510924F1510921B151A
:1045C00010921A1510921D1510921C1510921F159D
:1045D00081E080931E1582E28093201510922515AC
:1045E00010922415E9E3F5E127E435E18FEF81939B
:1045F0002E173F07E1F7C1E0C09336152BE739EBE3
:1046000030932C1520932B15C0932D1510922E1539
:1046100010922F1590E490933015109231152AE7DF
:1046200039EB309348152093471523E132E030935E
:1046300019152093181595E190933D1594E29093E8
:104640003E1595E090933B1580933A15809339156C
:104650000E94CBD3C093BD0481E08093BF048AE65F
:104660009EE090937F1480937E1410928114109298
:104670008014CF91089580918B0490918C040097C1
:1046800031F04AE050E070E060E00C946FF160E0DF
:1046900070E0CB010895EFDF97FD0AC0ECDF6F3FBC
:1046A00071058105910509F02CF4E5DF862F089549
:1046B00080E008958FEF089580918B0490918C0491
:1046C000892B39F0E8DF91E0811101C090E0892F5A
:1046D000089591E0FCCFCFDFCB01089580918B044A
:1046E00090918C04009731F04AE050E070E060E077
:1046F0000C949CF260E070E0CB010895EF92FF9281
:104700000F931F93CF93DF9300D000D000D01F9260
:104710001F92CDB7DEB77C0120915805422F022EA3
:10472000000C550B80915905833099F1843051F17B
:1047300084E192E15F932F939F938F938E010F5F9C
:104740001F4F1F930F930E9414F4C7010E949DB640
:104750004FE350E0B8018BE097E00E9471FE0F90AC
:104760000F900F900F900F900F902B960FB6F8941C
:10477000DEBF0FBECDBFDF91CF911F910F91FF9094
:10478000EF90089580E292E127FDD4CF8BE092E193
:10479000D1CF89E292E1CECFE0918C0786E0E802AA
:1047A000F0011124E85AF84F80819181A7CF8091C0
:1047B0009F059091A005A2CFCF93DF93CDB7DEB731
:1047C00020E2488559856F818E810E948ECDDF91D0
:1047D000CF910895282F10928A07809175079091A4
:1047E0007607A0917707B0917807B7FF08C01092BD
:1047F00075071092760710927707109278078091CC
:104800005E05882331F08091750780936A071092C6
:104810008507809164071816FCF4082E000C990B8C
:10482000821B910920916A07022E000C330B281776
:10483000390794F097FF02C090E080E080936A0708
:10484000092E000CAA0BBB0B80937507909376077B
:10485000A0937707B093780780916A076623A9F041
:1048600090916B07891714F480936B0720916B0765
:10487000022E000C330B2C5F3F4F482F082E000CEC
:10488000550B241735071CF4845080936B0708954B
:104890008F929F92AF92BF92EF92FF920F931F93CE
:1048A000CF93DF93EC018B01E42EF22E8091101553
:1048B000909111158C179D0709F43EC02091460573
:1048C00027FD1092460523EBCC31D20709F03FC0FB
:1048D0008954964471F40E94C2D16053784F8F4F2F
:1048E0009F4F609348057093490580934A059093C4
:1048F0004B05D0931115C093101530E020E00093C4
:104900007507109376072093770730937807E09226
:104910006B07F0926407C954D64421F410925F05E6
:104920001092470582E080935C0281E080938507C6
:1049300010925D0510925605DF91CF911F910F9156
:10494000FF90EF90BF90AF909F908F90089526E4D6
:10495000C934D20771F68C51934B19F0C9E4D6E4EF
:10496000C8CF0E94C2D18090480590904905A09080
:104970004A05B0904B05681979098A099B0997FF88
:10498000EDCFCBE5D8E7B5CF8091790581110CC08B
:1049900080912A0290912B02019720919F053091DE
:1049A000A005281739073CF080E692E190930A07AA
:1049B00080930907089520E040E070E060E08EEF0A
:1049C00090E366CF81E080935F0580910607877052
:1049D000873051F010920607109268058AE49BE137
:1049E00090930A078093090720E040E070E060E0C0
:1049F00088EC9CE24DCF20E040E070E060E089E48C
:104A000096E446CF0E94B19C0E941684882329F028
:104A100080E00E946883C0D9EECF68EB71E084E14A
:104A200090E00E9428ACF8CF0F931F93CF93DF93B1
:104A3000CDB7DEB76E970FB6F894DEBF0FBECDBF11
:104A400080918C07282F082E000C330BF901EE0FF4
:104A5000FF1FE35EFD4F91819F9390819F933F9352
:104A60008F9380E090E19F938F938E010F5F1F4F94
:104A70001F930F930E9414F44FE350E0B8018BE0B2
:104A800097E00E9471FEB7DF0FB6F894DEBF0FBE4D
:104A9000CDBF6E960FB6F894DEBF0FBECDBFDF91CF
:104AA000CF911F910F910895CF93DF93C091470548
:104AB000CC23B1F0C150C093470589E0C89FE00105
:104AC0001124C05FDA4F6A817B812F814E818881FA
:104AD0009981DEDE888580935F05DF91CF9108950F
:104AE000DF91CF9188CF80E090E0A0EAB0E480939E
:104AF000080D9093090DA0930A0DB0930B0D89EB4F
:104B000092E00E94BC9510925F05CECFE0914705E0
:104B1000E63028F581E08E0F8093470540917507B8
:104B200050917607609177077091780720916B0715
:104B30009091640780915F0539E0E39FF0011124B3
:104B4000E05FFA4FA0911015B0911115B183A083C9
:104B50004283538364837583268397838087089574
:104B600080936E0720E040E070E060E083E39AE22B
:104B70008FCECF93DF93CDB7DEB78E8190917D142A
:104B8000891778F080937D149E01275F3F4F4F81F6
:104B9000588564E570E088E294E10E9443F4109245
:104BA0002714DF91CF9108950F931F93CF93DF9335
:104BB0006F3F11F410927D1420917D1421111EC0BD
:104BC0008C010E94CAF3800F911FEC01C01BD10B16
:104BD000C535D1053CF00197FC012491207C20389B
:104BE000D1F3F3CFDD27AE01B80188E294E10E9452
:104BF000EBF3C85DDB4E188210922714DF91CF9142
:104C00001F910F910895CF9380910705811109C0DD
:104C100083E89FE090934D0580934C0581E080935D
:104C2000070574DF20E040E070E060E088EE9CE281
:104C30002FDEC1E0C0935F050E946D8710925F0573
:104C400033DFC0935F0560E080E890E3ADDF40E0D4
:104C500061E080E00E94AEB689E79FE090930A078A
:104C600080930907CF9108950F931F930E94C2D19B
:104C7000009103051091040520910505309106056A
:104C8000601B710B820B930B97FD0EC0809100018E
:104C90008695817091E089279091000190FF826054
:104CA0004A9B8460809302058091020581709091F7
:104CB000020591FD826090910105981749F08130BD
:104CC00009F148F0823079F0833091F0809301054A
:104CD0001F910F910895913079F09230B9F790912A
:104CE000000591500CC0992339F09330C1F3EECFF9
:104CF0009130A9F3923051F7909100059F5F909306
:104D00000005E4CF992359F3933001F7F5CFCF9203
:104D1000DF92EF92FF92CF93C82F0E94C2D16B0116
:104D20007C0124EA30E74DE75FE360912002709157
:104D3000210280912202909123020E947BF487FD40
:104D400018C08AEF90E0A0E0B0E08C0D9D1DAE1D74
:104D5000BF1D8093F0049093F104A093F204B093EC
:104D6000F304C0931B02CF91FF90EF90DF90CF90A0
:104D7000089580E090E0DC01E8CFCF93DF9313DC6F
:104D8000E1E0F1E080818D7F8083C2E0D1E0888125
:104D900080958270A0E0B1E08C9380818E7F8083CB
:104DA0008881809581708C9352985A9A5DDF109219
:104DB0000005DF91CF910895FC0180E0309749F024
:104DC0009491992331F0907C903809F08F5F31965F
:104DD000F7CF0895AF92BF92CF92DF92EF92FF92FA
:104DE0000F931F93CF93DF93EC015B018A01FB01CB
:104DF000199587FD16C0C82ED12CF12CE12C2196D7
:104E0000F801C082D182E282F382CE01DF91CF919C
:104E10001F910F91FF90EF90DF90CF90BF90AF90D8
:104E20000895982F907E903CA9F48F7190E0B0E0A7
:104E3000A0E06C017D0156E0CC0CDD1CEE1CFF1CDB
:104E40005A95D1F7CE010196F50119958F73C82AAD
:104E50002296D6CF982F907F903E11F58F7090E0DC
:104E6000B0E0A0E06C017D0136E0CC0CDD1CEE1C56
:104E7000FF1C3A95D1F7CE010196F50119958F7374
:104E8000C82A46E0CC0CDD1CEE1CFF1C4A95D1F76D
:104E9000CE010296F50119958F73C82A2396B0CFDB
:104EA000982F987F903F79F5877090E0B0E0A0E070
:104EB0006C017D0186E0CC0CDD1CEE1CFF1C8A958C
:104EC000D1F7CE010196F50119958F73C82A96E0A6
:104ED000CC0CDD1CEE1CFF1C9A95D1F7CE0102967E
:104EE000F50119958F73C82A26E0CC0CDD1CEE1C49
:104EF000FF1C2A95D1F7CE010396F50119958F7302
:104F0000C82A24967DCF982F907C903841F4807CDD
:104F1000803869F42196CE01F5011995F8CF8E7F7E
:104F20008D3F28F02196CE01F5011995F8CFC12CBF
:104F3000D12C760165CF20E030E040E05FE3609166
:104F40009B0570919C0580919D0590919E050E9406
:104F50004BFB0E948FFCCB0108959CE0899F802D24
:104F6000112491E0980F9093BE042CE0280F209319
:104F70008B0730E02E5F3F4F40914A1542171306D2
:104F800019F014F080E0089520914C159217D0F795
:104F9000662341F08E5F0E94EDD480918B078E5F77
:104FA0000E94EDD480918B0790914A15891750F398
:104FB00020914C159091BE04291720F310924D15A5
:104FC00080934E1581E008952091BC04022E000CC0
:104FD000330B8217130641F08093BC0468EB72E137
:104FE00086E195E10C94C4D50895CF92DF92EF92BB
:104FF000FF920F931F93CF93DF93CDB7DEB72C971C
:105000000FB6F894DEBF0FBECDBF6F3F71058105AF
:10501000910509F0C8F482E195E19EDAE0911A1554
:10502000F0911B153196849190E02C960FB6F89470
:10503000DEBF0FBECDBFDF91CF911F910F91FF90CB
:10504000EF90DF90CF900895F0904D15E0904E15C1
:105050002091BF0421110FC04AE45EE06E2D8F2D18
:105060000E9487D690E080E0F80EF0924D15E09215
:105070004E159927DACFC0901A15D0901B1526E14E
:1050800035E13A8329832F2D30E03C832B832E2D6D
:1050900030E03E832D8318861F822FEF3FEF3A8743
:1050A00029871C861B860AE412E29E012F5F3F4F70
:1050B000AB01BC01C6010E94CBC7B60186E195E1F8
:1050C0000E94C4D58F819885CFCF4F925F926F9207
:1050D0007F928F929F92BF92CF92DF92EF92FF9238
:1050E0000F931F93CF93DF9300D000D01F921F9296
:1050F000CDB7DEB77C016A014901FB0190818CE0EC
:10510000989F800D1124982FF7012081822F880FFE
:10511000820F880F80934D1590934E1541155105C0
:1051200061F1FA82E9827C836B8301111FC0AE01B9
:105130004B5F5F4FB401C6014DDE6C016D817E8116
:105140008F8198856115710581059105B1F04DDF5D
:10515000F70180818F5F8083853148F3CE0101960E
:105160000E94CA1BE4CFB12C860129C08A01B12C50
:1051700026C0452846284728B1F728960FB6F89448
:10518000DEBF0FBECDBFDF91CF911F910F91FF907A
:10519000EF90DF90CF90BF909F908F907F906F9017
:1051A0005F904F900895B39407C0B1102DC00115C2
:1051B0001105C9F20F5F1F4F01151105A9F2AE01CC
:1051C0004B5F5F4FB401C60105DE6C014D805E8010
:1051D0006F8078844114510461047104A9F0F0E2F5
:1051E0004F1651046104710401F3D301C2018D977C
:1051F000A109B1090297A105B10530F04BE24416AF
:1052000051046104710479F6F7018081482F4B0D38
:105210005527551F4631510534F0853020F0CE0119
:1052200001960E94CA1B81E041145104610471047B
:1052300009F480E0B80EF70180818B0D8083BB20DC
:1052400009F497CFBA94AE014B5F5F4FB401C80128
:10525000C1DD8C016D817E818F819885C6DEEFCFA7
:105260002F923F924F925F926F927F928F929F9276
:10527000AF92BF92CF92DF92EF92FF920F931F9364
:10528000CF93DF9300D0CDB7DEB74C013B015A017D
:10529000222E3B83280181E080935F0540917507B2
:1052A0005091760760917707709178074115510505
:1052B0006105710571F0141615060CF080E08093FD
:1052C0005605109275071092760710927707109284
:1052D00078071091560530906507109265073110D8
:1052E00005C080915C02882309F469C0C20164DDB5
:1052F000082F80E0C114D10411F0C6015DDD1A82CF
:105300001982E114F104B1F4402F50E0282F30E06D
:10531000CA01820F931F46976CF485E190E0841BCD
:10532000950B821B930B97FD0196959587958A8324
:1053300081E0898301E024EC3BE1A201BE016F5FC3
:105340007F4FCE010296C1DEE114F10489F08A811B
:10535000882321F01A8289818F5F898300E027ECFE
:105360003BE1A701BE016F5F7F4FCE010296ADDE2C
:10537000C114D10451F000E024EC3BE1A601BE01D0
:105380006F5F7F4FCE010296A0DE41E04127B3015F
:1053900081E00E945CD5C4010FDD412FB40194E18E
:1053A000981B892F0E945CD5332049F0111102C04F
:1053B000A22CBB80A114B104C1F0F50119950F9086
:1053C0000F900F90DF91CF911F910F91FF90EF9071
:1053D000DF90CF90BF90AF909F908F907F906F9015
:1053E0005F904F903F902F9008955EDBE8CFCF9273
:1053F000DF92EF92FF920F931F9386EAC82E81E10E
:10540000D82EF12CE12C04EB11E130E020E042E059
:1054100055E268EA71E18FEA91E122DF1F910F9175
:10542000FF90EF90DF90CF900895CF92DF92EF92B0
:10543000FF920F931F9381E6C82E81E1D82EF12CA5
:10544000E12C03E611E123E735E248E65DE16EE693
:1054500071E183E791E104DF1F910F91FF90EF90DD
:10546000DF90CF900895AF92BF92CF92DF92EF92EC
:10547000FF920F931F93CF93DF93CDB7DEB7ADB6F7
:10548000BEB681EE9FE098DC90E001962DB73EB766
:10549000281B390B0FB6F8943EBF0FBE2DBF8DB73A
:1054A0009EB701967C0161EE7FE00E94C3F380917C
:1054B0006E070EEA1FE0813031F009E91FE082300B
:1054C00011F001EC1FE082EDC82E8FE0D82E2BEFFB
:1054D00034E242E055E264ED7FE08BED9FE0C0DE18
:1054E0000FB6F894BEBE0FBEADBEDF91CF911F9137
:1054F0000F91FF90EF90DF90CF90BF90AF90089505
:10550000CF93DF93FC0125AD211104C021E025AF2D
:105510000E94CBD3C0911815D0911915E091471571
:10552000F091481582E01995E0914715F0914815E2
:1055300081E0199530E020E044E1BE0186E195E18B
:105540000E94C7D329E435E147E1BE0186E195E138
:105550000E94C7D3E0914715F091481580E0DF9194
:10556000CF911994CF92DF92EF92FF920F931F93F6
:10557000CF93DF93CDB7DEB72C970FB6F894DEBF8D
:105580000FBECDBFF0904D15E0904E152091BF0499
:1055900021111DC04AE25EE06E2D8F2D0E9487D63C
:1055A00090E080E0F80EF0924D15E0924E159927AC
:1055B0002C960FB6F894DEBF0FBECDBFDF91CF9112
:1055C0001F910F91FF90EF90DF90CF900895C090C2
:1055D0001A15D0901B1526E135E13A8329832F2D2A
:1055E00030E03C832B832E2D30E03E832D831886C4
:1055F0001F827A8769871C861B860AE412E29E0155
:105600002F5F3F4F44EC5BE1BC01C6010E948FC895
:10561000B60186E195E10E94C4D58F819885C2CFFD
:105620008F929F92AF92BF92CF92DF92EF92FF92B2
:105630000F931F93CF93DF9300D01F92CDB7DEB7A8
:105640007C01062F5A01122F862F660F990B9C01A1
:1056500023583D4F690186E0882E912C11160CF0DD
:105660003DC0AE014F5F5F4F64EC7BE1C701B2DB31
:105670007C0169817A818B819C816115710581052D
:10568000910561F16D3371058105910509F45DC0E6
:105690006E3771058105910509F457C06A327105AD
:1056A0008105910569F507FF11C08EE69EE00E3F6A
:1056B00011F08AE69EE036E01302B001112452DFB9
:1056C00066E070E00E940DFB161B6DC065E470E0A3
:1056D00080E090E08ADC1150D1F510E0812F0F902E
:1056E0000F900F900F90DF91CF911F910F91FF902E
:1056F000EF90DF90CF90BF90AF909F908F900895E4
:10570000643271058105910571F4A114B104D1F0E1
:10571000E6E01E02B0011124C50124DFB4010E949D
:105720000DFB161B9BCF603471058105910551F46B
:105730001150F6016081062E000C770B880B990B37
:1057400054DC8CCF52DC115089CF07FDAECF61E025
:1057500089819A81AB81BC81CD97A105B10509F4FE
:1057600060E0600F6A30A4F01150862F6AE00E945A
:10577000ECFA092F682F880F770B605D7F4F072E9B
:10578000000C880B990B31DC112309F4A6CF602F94
:10579000062E000C770B605D7F4F072E000C880BE8
:1057A000990B23DC1150112309F497CF86E01802DE
:1057B000B0011124C701D6DE66E070E00E940DFB47
:1057C000161B8CCFE2E1F5E183AF64AF6FEF7FEFA3
:1057D000CA01C8CECF92DF92EF92FF920F931F9330
:1057E000CF93DF93CDB7DEB72C970FB6F894DEBF1B
:1057F0000FBECDBFF0904D15E0904E152091BF0427
:1058000021111DC04AE05EE06E2D8F2D0E9487D6CB
:1058100090E080E0F80EF0924D15E0924E15992739
:105820002C960FB6F894DEBF0FBECDBFDF91CF919F
:105830001F910F91FF90EF90DF90CF900895C0904F
:105840001A15D0901B1526E135E13A8329832F2DB7
:1058500030E03C832B832E2D30E03E832D83188651
:105860001F827A8769871C861B860AE412E29E01E2
:105870002F5F3F4F47EC5BE1BC01C6010E948FC820
:10588000B60186E195E10E94C4D58F819885C2CF8B
:105890008F929F92AF92BF92CF92DF92EF92FF9240
:1058A0000F931F93CF93DF935B01C42F790141FBCB
:1058B000662760F952DB882309F45DC0D12CC12C26
:1058C000A114B10431F0C50177DA96E0899F600137
:1058D000112410E000E0E114F10429F0C7010E9456
:1058E000E01B082F10E0C0FF20C080E890E08C197A
:1058F0009D094AEF40039001419F300D1124820F12
:10590000931F6CE070E00E940DFB4B01C0E8D0E0FB
:1059100081E0881A910897FC0AC060E270E080E09C
:1059200090E063DBC81BD90BF3CFC0E8D0E0CD28F3
:1059300091F0CE0166E070E00E94F9FA262F4091C6
:105940008D0750918E0760918C07C50169DE96E046
:10595000899FE0011124012B29F0BE01C7013ADF24
:10596000C81BD90BC730D10530F060E270E080E091
:1059700090E03BDBF5CFDF91CF911F910F91FF902E
:10598000EF90DF90CF90BF90AF909F908F90089551
:1059900080915C02882339F030E020E041E068E744
:1059A00071E182E075DF809168058770873079F456
:1059B0001092570520E040E070E060E085E19AE257
:1059C0000E94482481E0809356050C94681D089538
:1059D00080915C02882349F060914C0570914D05DF
:1059E00030E020E041E081E053CF08956FEF7FEF9A
:1059F000F1CE2F923F924F925F926F927F928F9251
:105A00009F92AF92BF92CF92DF92EF92FF920F934D
:105A10001F93CF93DF934C010E94CAF30196840138
:105A2000080F191FC8010E94CAF301966801C80E29
:105A3000D91EF8016080C1E0611001C0C0E0F6012C
:105A40003080D1E0311001C0D0E0AA24A3946110CD
:105A5000A12C60E085E00E94EA2350906B07752C32
:105A60009EE0E92EF12C252C21948A2D90E00196C0
:105A70005C01AC0EB11CAD0EB11C71101CC080914C
:105A80005C02882399F0E0911F02E25060EA72E123
:105A9000E33038F4F0E0EE0FFF1FEF53FD4F60816D
:105AA000718130E020E043E0822DF2DED1E0611030
:105AB00012C0D2E010C0D2E06110D1E0D7110BC00B
:105AC00080915C02882339F030E020E041E0B401AD
:105AD0008D2F8519DDDEC1E0CD0F472C45186620DE
